:100000000C9479030C9496030C9496030C941C2A7C
:100010000C9496030C9496030C9496030C949603FC
:100020000C9496030C9496030C9430130C94BA170A
:100030000C9448230C9496030C9496030C9496030A
:100040000C9496030C9496030C9496030C949603CC
:100050000C9496030C9409140C9496030C94960338
:100060000C9496030C9496030C9496030C949603AC
:100070000C9496030C9496030C9496030C9496039C
:100080000C9496030C9496030C9496030C9496038C
:100090000C9496030C9496030C9496030C9496037C
:1000A0000C9496030C9496030C9496030000140091
:1000B0001A000800150017000000046816640761A4
:1000C00009620A0000001D001B74060019000500EB
:1000D0000000000000002B412C42294300001300C7
:1000E00012000C0018001C00000033680F640E6141
:1000F0000D620B0000003400377436001000110050
:100100000000000000004C462A4528440000005C26
:1001100000000000000000000000E300E200E0003A
:10012000E100000000000000E60000000000000008
:1001300000000000000000000000000000000000BF
:10014000000000000000000000000000F000ED00D2
:10015000EE00EF0000000000FC00F900FA00FB00D8
:10016000000000000000F200F300F1000000005C5D
:1001700000000000000000000000E300E200E000DA
:10018000E100000000000000E600000000000000A8
:10019000000000000000000000000000000000005F
:1001A0000000000000000000000000004F005200AE
:1001B00051005000000049004D004B004E004A0025
:1001C0000000000000000000000000000000005CD3
:1001D00000000000000000000000E300E200E0007A
:1001E000E100000000000000E60000000000000048
:1001F00000000000000000000000000000004600B9
:10020000000000003B003A000000420041004000B6
:100210003C003D0000000000000000003F003E00E8
:1002200000000000000045004400430000002400DE
:10023000220020001E0026000000230021001F00D5
:10024000270025000000220225022E002E02380081
:100250000000000000002D022D00630000000000DF
:1002600000000000000000000000E300E200E000E9
:10027000E100000000000000E600000000000000B7
:1002800000000000000000000000000000001F024D
:100290002F0026022F02210200002D02300027022B
:1002A0003002230200003102200224023500310016
:1002B0000000000000001E023502380200000000AD
:1002C00000000000000000000000E300E200E00089
:1002D000E100000000000000E60000000000000057
:1002E000000000000000000000000000000000000E
:1002F00000000000000000000000390000000000C5
:1003000000000000000000000000000000000000ED
:1003100000000000000000000000000000000000DD
:1003200000000000000000000000000000000000CD
:1003300000000000000000000000000000000000BD
:1003400000000000000000000000000000DA028150
:10035000FFD9F1DB20A4A62EAF00A0C000A1C800E9
:10036000AED580A81FD300408D1420001E0F0500BD
:10037000047F3F1F643214643214783C1E1E140A3A
:100380000500010101010101010101020202020255
:10039000020202020303030303030303040404042D
:1003A00004040405050505050606060606070707F5
:1003B000070708080808090909090A0A0A0B0B0BAC
:1003C0000C0C0C0D0D0D0E0E0E0F0F0F1010111149
:1003D00011121213131414151516161717181819CD
:1003E000191A1A1B1B1C1D1D1E1E1F202021222234
:1003F000232424252626272829292A2B2C2D2D2E77
:100400002F30313232333435363738393A3B3C3D90
:100410003E3F404142434445464748494A4C4D4E81
:100420004F50515354555658595A5B5D5E5F616247
:1004300064656668696B6C6D6F7072737577787AD6
:100440007B7D7E8082838587888A8C8E8F91939531
:1004500096989A9C9EA0A2A3A5A7A9ABADAFB1B355
:10046000B5B7BABCBEC0C2C4C6C9CBCDCFD1D4D635
:10047000D8DBDDDFE2E4E7E9EBEEF0F3F5F8FAFDD7
:10048000FFFFAA7F55402223252628292A2C2D2F1D
:100490003032333536383A3B3D3E4042434547499A
:1004A0004A4C4E5051535557595A5C5E60626466CF
:1004B00068696B6D6F71737577797B7D7F818385DB
:1004C00087898A8C8E90929496989A9C9E9FA1A3DD
:1004D000A5A7A8AAACAEAFB1B3B4B6B8B9BBBCBE01
:1004E000BFC1C2C3C5C6C7C9CACBCCCDCED0D1D27D
:1004F000D2D3D4D5D6D7D7D8D9D9DADADBDBDBDC7F
:10050000DCDCDCDCDDDDDDDDDCDCDCDCDCDBDBDB2A
:10051000DADAD9D9D8D7D7D6D5D4D3D2D2D1D0CE8A
:10052000CDCCCBCAC9C7C6C5C3C2C1BFBEBCBBB98F
:10053000B8B6B4B3B1AFAEACAAA8A7A5A3A19F9E0D
:100540009C9A98969492908E8C8A89878583817FD5
:100550007D7B79777573716F6D6B696866646260B6
:100560005E5C5A5957555351504E4C4A4947454382
:1005700042403E3D3B3A3836353332302F2D2C2A1F
:1005800029282625232200AF00AE05010902A1017A
:1005900085020901A1000509190129081500250195
:1005A0009508750181020501093009311581257F02
:1005B00095027508810609381581257F9501750812
:1005C0008106050C0A38021581257F950175088181
:1005D00006C0C005010980A101850319012AB700E1
:1005E000150126B700950175108100C0050C0901A1
:1005F000A101850419012AA002150126A002950176
:1006000075108100C005010906A1018506050719BD
:10061000E029E715002501950875018102050719F4
:100620000029EF1500250195F075018102050819D3
:10063000012905950575019102950175039101C088
:1006400005010906A101050719E029E715002501A3
:10065000950875018102950175088101050719004A
:1006600029FF150026FF0095067508810005081969
:10067000012905950575019102950175039101C048
:1006800009023B00020100A0FA0904000001030175
:100690000100092111010001224000070581030822
:1006A00000010904010001030000000921110100FB
:1006B0000122B6000705820320000112010002009A
:1006C000000008534601000100010200010C034331
:1006D000006F0072006E0065000000100366006F7E
:1006E000006F007300740061006E000000040309D5
:1006F000040011241FBECFEFDAE0DEBFCDBF26E03D
:10070000ACEBB1E001C01D92A73EB207E1F711E0EA
:10071000A0E0B1E0E0E1FAE502C005900D92AC3B4B
:10072000B107D9F70E946F230C94F02C0C940000B1
:10073000FC01AC014C5F5F4F8FEF91E32191822769
:1007400028E030E087FF09C0880F89272150310950
:10075000C9F7E417F50791F70895880FF7CFE8ED8B
:10076000F0E080818E7F80831092E2001092DA00A8
:100770001092E100A0EEB0E08C9181608C938081BA
:100780008F77808319BCA7EDB0E08C918E7F8C931E
:1007900080818F7E80831092B50608952091E400B9
:1007A0003091E50095E6A9012091EC00822F81703F
:1007B00020FF06C08091E80080FF06C080E0089519
:1007C0002091E80022FD1AC08091DA06882389F082
:1007D000853089F08091EB0085FD0FC02091E40009
:1007E0003091E50042175307F9F29150E1F684E0A9
:1007F000089582E0089583E0089581E00895EF92DE
:10080000FF920F931F93CF937C018B010E94CE0325
:10081000C82F811117C08091E80085FD0BC0809121
:10082000E8008E778093E8000E94CE03882399F336
:10083000C82F08C0F70181917F018093F10001501A
:10084000110949F78C2FCF911F910F91FF90EF90D5
:1008500008958091DC0687FF13C08091E80082FF35
:1008600006C08091E8008B778093E80004C08091F7
:10087000DA068111F2CF08958091DA068823D9F340
:100880008091E80080FFF8CF8091E8008E77ECCF70
:10089000982F9093E900242F762F50E0891731F09C
:1008A0007091EC002091ED005091F00021FD07C007
:1008B0009F5F973071F78093E90081E00895309150
:1008C000EB003E7F3093EB003091ED003D7F3093A5
:1008D000ED003091EB0031603093EB007093EC0051
:1008E0002093ED005093F0002091EE0027FDE0CF23
:1008F00080E00895B0E0A0E0E0E8F4E00C94562B2E
:10090000C8EDD0E088818F7E8883E7EDF0E08081BC
:100910008160808384E082BF81E08093B506888116
:100920008E7F888302EE10E0F80110821092DA00C8
:1009300081EEC82ED12CF601108288818F778883B2
:1009400088818068888388818F7D888319BC109214
:10095000DA061092DB061092D9061092D80690EEB5
:10096000E92EF12CF70180818B7F80838881816063
:10097000888342E060E080E00E944804F6018081C4
:100980008E7F8083F8018081816080838081886090
:100990008083F70180818E7F808388818061888356
:1009A000CDB7DEB7E8E00C94722BFC018091E20633
:1009B0009091E30686179707A0F06115710529F459
:1009C0009091E8009E779093E80090E061157105A2
:1009D00051F4911108C08091E80082FF34C080E09A
:1009E0000895BC01F2CF8091DA068823C1F18530E9
:1009F000C1F18091E80083FD30C08091E80082FD64
:100A0000EACF8091E80080FFE1CF8091F300209150
:100A1000F200382F6115710519F02830310558F0B2
:100A200091E02830310509F090E02091E8002E7720
:100A30002093E800CBCF81918093F1006150710940
:100A40002F5F3F4FE7CF8091DA06882341F0853052
:100A500041F08091E80083FFBECF81E0089582E0FD
:100A6000089583E0089508958091B706089587E773
:100A700097E7909301088093000888E19AE00FB609
:100A8000F894A895809360000FBE90936000FFCF0C
:100A90002FB7F8946091AC067091AD068091AE06C8
:100AA0009091AF062FBF089520914B012223C9F0EA
:100AB0002091B00627FF15C0E62FE695E695E6954E
:100AC000EE31D8F4E80FF92FF11D677021E030E026
:100AD00001C0220F6A95EAF720958281282322839C
:100AE0000895FC01329608962191621303C0DF013C
:100AF00011971C92E817F907B9F7089520914B0157
:100B00002223C1F02091B00627FF14C0E62FE695FE
:100B1000E695E695EE31F8F4E80FF92FF11D6770D0
:100B200021E030E001C0220F6A95EAF78281822B32
:100B300082830895FC0132962FEF30E041916417D3
:100B400051F02F3F19F4411101C0232F3F5F363080
:100B5000A9F72F3F09F40895820F911D27FD9A955B
:100B6000FC01628308952091A9063091AA062817F6
:100B7000390771F09093AA068093A906E091A70621
:100B8000F091A806309721F00084F185E02D0995B9
:100B900008952091A5063091A6062817390771F00F
:100BA0009093A6068093A506E091A706F091A8066B
:100BB000309721F00680F781E02D09950895FA011C
:100BC000811101C0FB01099508950895E4EEF4E058
:100BD0001182828184608283089580919A06982F81
:100BE0009E7F61F48170826080939A0680919D0659
:100BF000893718F088E780939D0608958635B0F30D
:100C000081708465F1CFAF92BF92DF92EF92FF9235
:100C10000F931F93CF93DF93182F062FE9014937C6
:100C200008F048E7E42FF0E0EF57FC4F011110C047
:100C3000E4915E2F4E2F4983E8835A83DF91CF9151
:100C40001F910F91FF90EF90DF90BF90AF900895AC
:100C5000202F30E04491D42EE42EF12C56E0159F45
:100C6000C0011124EFEFF0E0BF010E94382B812F6B
:100C700090E0880F991F55E5569FD001579FB00D02
:100C800011248A1B9B0B982F990F890F5F01A21AC1
:100C9000B30AAE9CD001AF9CB00DBE9CB00D112428
:100CA0005B2F089F80011124012F11275F01A01ADB
:100CB000B10AAE9C8001AF9C100DBE9C100D11249A
:100CC0005F01A81AB108A29EC001A39E900DB29E1A
:100CD000900D1124892F9927E81BF90BEE9DC00177
:100CE000EF9D900DFE9D900D1124E92F623071054E
:100CF000A1F050F46115710509F49DCF61307105C3
:100D000081F0EB2F512F97CF6430710569F080F09F
:100D10006630710509F48FCFF4CFE42F4B2F592F94
:100D20008ACFE42F412F87CFEB2F542F492F83CF2A
:100D30004B2F5D2DE12F7FCF4091DA048D3E59F48A
:100D40008091DB0487FF0DC01092DB0441110BC0C2
:100D50001092D20408C08E3E81F48091DB041816F4
:100D60009CF3442381F08091DC049091DD04892B75
:100D700009F05AC01092D10408958F3E49F447FFFC
:100D8000F0CF1092DA048091DB048111ECCFE0CF38
:100D9000803F19F41416ACF3E4CF9091DC04893F42
:100DA00029F41916F4F61092DC04DBCF8A3F19F40B
:100DB00097FFD7CFF8CF9091DD048B3F29F497FFB1
:100DC000D0CF1092DD04CDCF8C3F19F41916CCF39F
:100DD000C8CF9FE0980F983090F4815F990B21E085
:100DE00030E0B90102C0660F771F8A95E2F7CB01A8
:100DF00080959091D90489238093D904B2CF8D3FF7
:100E000031F48091D3048E7F8093D304AACF8E3F98
:100E100021F48091D3048D7FF7CF8F3F09F0A1CFCC
:100E20008091D3048B7FF0CF08958091D30480FD0F
:100E300016C081FD16C082FD16C08091D1048823A2
:100E4000A1F0883280F428E0829FC001112468E27A
:100E500070E00E949D2B862F672B39F0089582E069
:100E6000089584E0089588E0089581E008958091D0
:100E7000D30480FD14C081FD14C082FD16C0809192
:100E8000D204882381F08E3180F420E5829FC00156
:100E900011246EE170E00E949D2B862F089584E15D
:100EA000089588E2089588E0089580E508958D3ECC
:100EB00031F40E94370781958093DB0408958E3EBC
:100EC00019F40E943707F8CF8F3E31F40E9437079C
:100ED00081958093DA040895803F19F40E943707C2
:100EE000F8CF893F29F40E9415078093DC04089508
:100EF0008A3F21F40E9415078195F7CF8B3F31F48B
:100F00000E94150781958093DD0408958C3F19F4A4
:100F10000E941507F8CF9FE0980F983070F4815F1A
:100F2000990B21E030E001C0220F8A95EAF7809109
:100F3000D904822B8093D90408958D3F31F4809198
:100F4000D30481608093D30408958E3F21F480916F
:100F5000D3048260F7CF8F3FB9F78091D3048460C8
:100F6000F1CF80E00895F894E82FE295EF70F0E07B
:100F700031A1282F2F7081E090E001C0880F2A95C1
:100F8000EAF7982F9095932391A392A1892B82A39E
:100F9000789408959091B00692FF06C0282F28718A
:100FA0002830F9F4877F846093FF06C0282F2871CA
:100FB0002831F1F4877E84612091B10620FF06C0BC
:100FC000382F38713830D9F4877F816021FF06C00F
:100FD000282F28712831D1F4877E816194FD877E86
:100FE0000895282F24712430F9F68B7F8860DCCF98
:100FF000282F2471243101F78B7E8861DDCF382FB3
:101000003171313019F78E7F8860E0CF282F217140
:10101000213121F78E7E8861E1CF972F7830A8F4B7
:10102000663098F470E026E0929F600D711D1124E7
:10103000FB0190E3899FE00DF11D1124EE0FFF1FCE
:10104000E455FF4F85919491089580E090E00895D4
:10105000CF93DF93EC0182389105B1F108F040C0E5
:101060008133910509F49DC048F58932910509F451
:101070008DC08A9709F49CC0C11521E5D20708F0FC
:10108000C3C0C11530E5D30708F01EC1C83ED10565
:1010900008F0A3C0C03ED10588F5C83AD10508F0D4
:1010A0008EC0C53AD10508F007C1C130D10531F174
:1010B000209721F1C430D10508F545C0853391054D
:1010C00009F45FC0C997C1F68091B006837009F03A
:1010D00043C18091B10683FF11C0C9E2D0E00EC0C8
:1010E000833E910599F170F4803E910501F1823EB5
:1010F000910511F68091B00682FD21C0CE01DF91ED
:10110000CF910895863E910561F1873E910571F179
:10111000843E910509F0B0CF8091B10681FFEECFFA
:101120008091B006C7EED0E084FD0DC0E7CF80917E
:10113000B00680FD33C09091B10690FFDFCFC3EEC3
:10114000D0E084FFDBCFD0E0C0E0D8CF8091B00604
:1011500082FDFFC09091B10690FDFEC084FFCECF0E
:10116000F2CF8091B00683FDDDCFC8CF8091B0066D
:1011700083FDF5C09091B10691FFF0CFC4EED0E0B1
:10118000BDCF8091B00685FFB9CFA7CF8091B006C3
:1011900085FDE8C08091B10683FFB0CFC9E3D0E000
:1011A000ADCF8091B00686FFA9CFCAE2D0E0A6CF2E
:1011B0008091B00686FFA2CFC1E3D0E09FCFCF3BA6
:1011C000D10508F6C85AD0E0CC0FDD1FC15BDE4F59
:1011D0000990D881C02DD46491CFC11540E2D407C5
:1011E00058F4C11581E0D80708F088CFCD3ED1056D
:1011F00008F4A9CFD06582CFC11520E4D20708F446
:10120000A2CFDF70D06A7ACFC11535E5D30718F5C4
:10121000C11544E5D40708F084C0C11583E5D8079B
:1012200008F06BC0C11522E5D20708F461C0CE01F9
:101230008370992721E030E002C0220F331F8A9586
:10124000E2F7C695C69580E2C89FE0011124C22B43
:10125000D32BDC6853CFC11539E5D307A8F4C115EA
:1012600048E5D40708F062C0C11586E5D80708F044
:101270006ACF8C2F0E94CA07C82FD0E0DC2FCC2762
:10128000CC27DF71D0623ACFC1152AE5D20708F426
:1012900052C0CE0190568115904208F054CF8D2F48
:1012A0008F710E94CA0790E0982F882788279F7126
:1012B0009C012C2BE901E6CFC55AD0E0C45BDE4F80
:1012C000C881D0E0D0641ACFCE018370992721E085
:1012D00030E002C0220F331F8A95E2F7C695C6950B
:1012E00040E2C49FE0011124C22BD32BDD6806CF5E
:1012F000DC2FCC27C16FD06A01CFCE018370992734
:1013000021E030E002C0220F331F8A95E2F7C69534
:10131000C69540E2C49FE0011124C22BD32BDA68AA
:10132000EDCEDC2FCC27C46FD06AE8CEDC2FCC27E3
:10133000C06FD06AE3CE8C2F8F700E94CA0734E052
:10134000D695C7953A95E1F7CF709C2FEC01D069FF
:10135000D5CEC2EED0E0D2CEC0EED0E0CFCEC6EE3B
:10136000D0E0CCCEC5E3D0E0C9CE8091520281114D
:101370001092520208958095909151029823909373
:101380005102089580912E029091FD01981301C0A1
:1013900008958F5F8770FACFB0E0A0E0E2EDF9E04A
:1013A0000C94552B7C010091900210919102809138
:1013B000530290915402082B192BCFE0D0E0CC249B
:1013C000C394D12CBC2EC6010C2E02C0880F991FCD
:1013D0000A94E2F780239123892B49F4219790F70F
:1013E000B12C8B2DCDB7DEB7E9E00C94712BB70192
:1013F0008C2F0E940D080E942808019779F3F1CFE5
:10140000CF93DF93EC010E94CC09BE010E940D082E
:101410000E942808DF91CF910895983078F58630A2
:1014200068F5E82FF0E086E0989FE00DF11D1124AB
:101430009E2F977083E0F695E7958A95E1F7EE0F7A
:10144000FF1FEE0FFF1FE152FE4F50E040E080E033
:10145000219130E0092E02C0369527950A94E2F7D3
:1014600021703327042E01C0220F0A94EAF7822B41
:101470004F5F5F4F4430510559F7089580E008955C
:10148000983098F5863088F5E82FF0E086E0989F50
:10149000E00DF11D11248E2F877041E001C0440F33
:1014A0008A95EAF783E0F695E7958A95E1F7EE0FDE
:1014B000FF1FEE0FFF1FE152FE4F30E020E070E013
:1014C0005191DF011197CB01022E02C096958795AD
:1014D0000A94E2F7817081958527842385278C9370
:1014E0002F5F3F4F2430310559F70895FC01838168
:1014F0009481892B29F08081918189238F3F51F438
:1015000080E00895843FE1F717C0883EA8F0813F4E
:10151000B9F712C0808191810E94000A92959F7054
:10152000963099F358F4925F9F70923048F7803F5D
:1015300019F040F7883E20F781E008959A5FF4CFD4
:101540008093B2067093B4066093B3068091DA0676
:10155000843001F582E08093E9008FEF9091E800FC
:10156000815095FD06C095ED9A95F1F70000811127
:10157000F5CF8091E80085FF0DC050E040E063E0CA
:1015800070E082EB96E00E94FF038091E8008E7786
:101590008093E8000895BC0184E00E94A00A0895A9
:1015A000BC0183E00E94A00A08959C0182E0809320
:1015B000E9009FEF8091E800915085FD06C085ED20
:1015C0008A95F1F700009111F5CF8091E80085FF31
:1015D0000CC050E040E066E070E0C9010E94FF03EB
:1015E0008091E8008E778093E8000895CF93DF9391
:1015F000EC0180914B018823B1F18091B00687FF07
:1016000032C060E282E08093E9008FEF9091E800C1
:10161000815095FD06C095ED9A95F1F70000811176
:10162000F5CF8091E80085FF1BC080914B0170E0F1
:1016300050E040E0811104C050E040E068E070E01C
:10164000CE010E94FF038091E8008E778093E8002E
:1016500080E2FE01A8EBB6E001900D928A95E1F7D9
:10166000DF91CF91089568E081E0CDCF609147018F
:1016700080919A0680FF20C08091460143E0849FBC
:10168000C001112486519B4F539A2BB1277F3BB148
:1016900038605FB7F894FC01649FE00DF11D1124E0
:1016A000BF0168177907D1F45FBF8FE594E0019718
:1016B000F1F700C000000895809148019091490120
:1016C00023E0829FF0011124E651FB4F8917A0F619
:1016D0001182108212828F5F3396F8CFFC01419104
:1016E000CF01E8E03BB9000000C047FF2BB9440F31
:1016F000000000C000C000C02BB900C0EA9591F7FF
:10170000D0CF0F931F93CF93DF93EC0110E000E055
:1017100090914A019017110609F06CF40E94360B63
:101720008C8190E00196817099278C83DF91CF9115
:101730001F910F91089520914801A801420F511D5A
:101740009A01220F331F240F351F26513B4F4C8126
:1017500060919C0680919B0696959017110651F01A
:101760004CF0442349F040919D060E9403060F5F10
:101770001F4FCECF4423B9F340E0F7CFB0E0A0E055
:10178000E4ECFBE00C94522BEC014C81042F10E0B4
:101790009801D8010E94E12C9B01AC010E94AC2C65
:1017A0004B015C01E0E2F0E0E01BF10BA5E5B0E0ED
:1017B000AC019B010E94AC2C6B017C019F01DF01FD
:1017C0000E94B72B9B01AC010E94B72C9B01AC017E
:1017D000280D391D4A1D5B1DC701B6010E94BF2C93
:1017E000F22E822F90E039E23F1520F143E0249F52
:1017F0009001112435952795122F109500E085E56D
:10180000E82EEF1880914A01081718F10E94360B54
:101810009C8181E0992319F0903219F48FEF809325
:10182000450180914501890F8C83CDB7DEB7ECE08F
:101830000C946E2B25E530E0B901681B790B9B01F8
:10184000220F331F260F371F37FFD4CF2F5F3F4F95
:10185000D1CF8E2D01FD8F2D20914801622F600F79
:101860007727771F9B01220F331F260F371F265123
:101870003B4F412F60919C060E9403060F5FC2CF31
:10188000EF92FF920F931F93CF93DF93EC018C8124
:10189000811109C081E08C831092E80492E090935A
:1018A000440180934301809148019091490123E0D4
:1018B000829FF0011124E651FB4F891758F110E087
:1018C00003E060914A01161758F10E94360B80918F
:1018D00043012091E804280F2093E80490914401EB
:1018E000980F90934401191654F4022E000C330BF8
:1018F00040914A014150550B2417350734F081952A
:1019000080934301813009F41C82CDB7DEB7E6E055
:101910000C94742B1182108212828F5F3396CDCF7C
:10192000E12EF12C70E0C7010E949D2B209148010F
:10193000820F482F50E02091E804022E000C330B58
:10194000E216F306BCF020914401022E000C330B8A
:101950002E153F057CF0809F9001112426513B4FAE
:1019600040919D0660919C0680919B060E94030613
:101970001F5FA7CFFA01EE0FFF1FE40FF51FE6511F
:10198000FB4F118210821282F3CFB0E0A0E0EBECAB
:10199000FCE00C94522BEC018A81BB24BA9480FDAC
:1019A00002C0BB24B394A0904A018C81811109C06C
:1019B00081E0B81220C08FEF8A0D8093E70481E0A8
:1019C0008C83F12CE12C46E3942EEA14B8F00E94AB
:1019D000360B8091E70491E0B91257C0811150C0D5
:1019E00080914A0181508093E7041C82CDB7DEB715
:1019F000ECE00C946E2B1092E704E1CF00914801CB
:101A00000E0D1F2D111DC801880F991F080F191FDA
:101A100006511B4FF80111821082128234E0C32E4E
:101A2000D12C812C8091E704880D87332CF1692D0E
:101A30000E948F2B892F082E000C990B8E159F0565
:101A400091F480919D068C9DA0018D9D500D1124D7
:101A50005595479555954795980160919C068091BD
:101A60009B060E9403068B0CF1E0CF1AD108D1F639
:101A70008FEFE81AF80AA9CF87FFDDCF8A0DDBCFF9
:101A800081508093E704BC82B1CF90E001966091D1
:101A90004A0170E00E949D2B8093E7048C83A6CFBF
:101AA000EF92FF921F93CF93DF93EC0110E0EE24AF
:101AB000EA94F12C60914A01161770F00E94360BDF
:101AC0009A818C8190FF27C08F5F8C83DF91CF91AB
:101AD0001F91FF90EF90089520914801422F410FF0
:101AE0005527551FCA019A01220F331F280F391F8E
:101AF00026513B4F70E0C7010E949D2B962F8C8191
:101B000040919D0660919C06199F800D11240E94B2
:101B100003061F5FCFCF8150D8CF90919A0690FFD8
:101B20000EC0909148012091490133E0939FF0014C
:101B30001124E651FB4F921718F00E94360B0895BE
:101B40008183608342839F5F3396F5CFA3E0B0E04B
:101B5000ECEAFDE00C945A2B8C018091E904811190
:101B60000AC09E012F5F3F4F48E76FEF0E940306B8
:101B70008A818093E904F8016481613069F0809181
:101B8000E90440E0662361F040E0623011F44091E6
:101B9000E90480E060E004C06091E90440E080E096
:101BA0000E948D0DF801848190E0019663E070E061
:101BB0000E949D2B84832396E4E00C94762BA3E073
:101BC000B0E0E5EEFDE00C945C2B90919A0690FF5E
:101BD0000AC09E012F5F3F4F0E9403064B8169811F
:101BE0008A810E948D0D2396E2E00C94782BCF938E
:101BF000DF93EC01EAE9F6E0438162818C810E9487
:101C0000DF0D8C818F5F8C83DF91CF910895CF930F
:101C1000DF93EC01EC81F0E0EA57FB4F4491EAE9F5
:101C2000F6E0628181810E94DF0D8C818F5F8C8361
:101C3000DF91CF910895B0E0A0E0E1E2FEE00C94E6
:101C4000542B7C015B016A018091810201E010E06C
:101C50008A3010F40AE010E0C1E0D0E0B501C7011D
:101C6000F6010995811104C021960C171D072CF46B
:101C7000CDB7DEB7EAE00C94702BCC9F9001CD9FDE
:101C8000300D300D112490E080E045E34A95F1F7E6
:101C90000000019682179307C1F7E0CF80915F02A1
:101CA000811110C08091D80080618093D8008AE1B2
:101CB0008A95F1F700C08091D90080FF0AC081E0C9
:101CC00080935F0281E090915F02913009F080E0A3
:101CD000089582E080935F020E94AF031092DA06BB
:101CE000F1CF0E944E0E882359F0E091A706F091A3
:101CF000A806309729F00190F081E02D099508950C
:101D000080E008950F931F930E944E0E882329F0C0
:101D10000E9448051F910F9108950E944805009167
:101D20008202109183022091840230918502600F1B
:101D3000711F821F931FEECFB0E0A0E0E2EAFEE049
:101D40000C94562B6C017B0164E670E088E70E94DE
:101D50009628EC0197FD12C010E000E0F601E00FBC
:101D6000F11F849164E670E00E940229EC01892B46
:101D700029F40F5F1F4F0E151F0581F70E94782968
:101D8000CE01CDB7DEB7E8E00C94722B8091A306AC
:101D90009091A406911103C091E0892708958823AA
:101DA00069F062E070E088E895E00E949C0E892B63
:101DB00019F08091A30608951092A3068091A306BE
:101DC000EBCFCF93C091A3068091A4068823D1F0D6
:101DD0000E944805605A75418F4F9F4F60939F0640
:101DE0007093A0068093A1069093A206C11108C02B
:101DF00062E070E086E895E00E949C0E892B29F055
:101E0000C091A3068C2FCF91089581E08093A30603
:101E1000F7CFB0E0A0E0EFE0FFE00C944E2BFC0128
:101E20006280448081E08483E6E8F4E07490E5E039
:101E3000F5E0E491812C75E0972EF2E0CF2EDD24C1
:101E4000D394AA24AA94B12C55245A94E7190E2F9E
:101E500010E080914A01881638F00E94360BCDB709
:101E6000DEB7E0E10C946A2BE82CF12C82E08615B9
:101E700068F09E9CF0019F9CF00D1124E457FA4FEE
:101E800080919B06808380919C068183411023C0B2
:101E90009E9CF0019F9CF00D1124E457FA4F138291
:101EA000128220914801C701820F911D9C01220FCF
:101EB000331F280F391F26513B4F9E9CF0019F9CDA
:101EC000F00D1124E457FA4F4281618180810E9414
:101ED00003068394BECF9E9CE0019F9CD00D1124ED
:101EE000C457DA4F8B818823E9F081508B83859D1D
:101EF000C00111246C8170E00E94382BFB01FF2788
:101F0000EA57FB4F8491E82FE719E59DC0011124A2
:101F1000B8010E94382B80919D06689FB001112462
:101F20007A83BFCF0E94122C20919D0626952158BE
:101F30002C9DA0012D9D500D1124452F5527841750
:101F400095070CF0AECF82E0861588F40E94122C23
:101F5000B5010E949D2B88830E94122C20919C0623
:101F60002695622F70E00E949D2B280F29839E9C4E
:101F7000F0019F9CF00D1124E457FA4F12828091DA
:101F80009D06893C58F088EC9E9CF0019F9CF00DCA
:101F90001124E457FA4F8483838383CF8431A0F7DD
:101FA00084E1F2CFCF92DF92EF92FF926B017C013E
:101FB0000E94ED05B701A60188E090E00E946B2C1D
:101FC000FF90EF90DF90CF900895A3E0B0E0EBEEAC
:101FD000FFE00C94552B082FD62EF42EC22E909194
:101FE0009A0690FF3AC0E92FE695AE2FB0E0AF56C3
:101FF000BE4F8C918093E4049E7F923091F59E01B8
:102000002F5F3F4F802F0E9403064B8169818A8199
:102010000E948D0D80919B06801308C080919C06C4
:102020008D1104C080919D068F1529F08091E604E2
:1020300082608093E60400939B06D0929C06F09207
:102040009D06CC2051F060919A0670919B0680917C
:102050009C0690919D060E94D20F2396E9E00C9475
:10206000712B823019F4F0909D06D4CF863019F48C
:1020700000919B06CFCF8930D9F3893159F6E951C8
:102080006E2F6170B62EE695F0E0EF57FB4F14917E
:10209000E12C60914A01E61618F00E94360BBACF87
:1020A000E19EC001112470E00E94382B802FB110F6
:1020B00014C0860F20914801622F6E0D7727771F7D
:1020C0009B01220F331F260F371F26513B4F4F2DE9
:1020D0006D2D0E940306E394DCCF861BEBCFEAE96B
:1020E000F6E0438121E1421B08F440E021E06281F7
:1020F00081810E94E50F0895EAE9F6E0438121E13C
:10210000420F08F44FEF21E0628181810E94E50FC8
:102110000895EAE9F6E0628121E1621B08F460E0DB
:1021200021E0438181810E94E50F0895EAE9F6E00C
:10213000628121E1620F08F46FEF21E04381818128
:102140000E94E50F0895EAE9F6E0818121E04381EC
:1021500062818A500E94E50F0895EAE9F6E08181E4
:1021600021E043816281865F0E94E50F089580919E
:102170009E06882319F0815080939E0660919A06EE
:1021800070919B0680919C0690919D060E94D20FB3
:10219000089580919E06833018F48F5F80939E0689
:1021A00060919A0670919B0680919C0690919D0685
:1021B0000E94D20F0895EAE9F6E083E0808311825D
:1021C0008FEF828388E783831482A4EEB4E01296B3
:1021D0008C911297836012968C93608171818281B9
:1021E00093810E94D20F08958091510290915002E4
:1021F000892B8093BE01909152029923A1F0892BE3
:102200008093BE0180914B018823E1F18091B0065B
:1022100087FF38C08EE1E0ECF1E090E08150A0F55E
:1022200091110E94B50940E250E060E372E08EEB4C
:1022300091E00E942F2C892B21F180E2EEEBF1E05E
:10224000A0E3B2E001900D928A95E1F7E091A70634
:10225000F091A8063097A9F080914B01882359F09E
:102260008091B00687FF07C08091BE018093BF01B7
:1022700086E08093BE010280F381E02D8EEB91E039
:102280000995089586E0C7CF2191222339F29F5FF7
:10229000C5CF882321F00E94BB090E94F410089545
:1022A000882339F090915102982B909351020E940B
:1022B000F4100895CF9384E090E00E94452CC82F3D
:1022C00082E290E00E94452C982F8C2FCF910895A8
:1022D000A4E0B0E0EEE6F1E10C945B2B40916802E3
:1022E0005091690260916A0270916B022FB7F89465
:1022F0008091AC069091AD06A091AE06B091AF066C
:102300002FBF841B950BA60BB70B11E084369105EC
:10231000A105B10570F10E94820E6E5F7F4F8F4F55
:102320009F4F69837A838B839C8380911501909161
:10233000160184599D4F4091140150E045305105DC
:1023400010F044E050E0BE016F5F7F4F0E943C2CD4
:1023500082E090E00E94C22A182F882351F00E9448
:102360004805609368027093690280936A029093B3
:102370006B02812F2496E3E00C94772BA8E0B0E069
:10238000E4ECF1E10C945C2B85E0EAE9F6E0DE0197
:10239000119601900D928A95E1F78091E404909155
:1023A000E504A091E6048E839F83A8872885409149
:1023B0007D0250917E0260917F02709180023FB752
:1023C000F8948091AC069091AD06A091AE06B091C4
:1023D000AF063FBF841B950BA60BB70B8436910548
:1023E000A105B10510F4222319F180911D019091EE
:1023F0001E0184599D4F40911C0150E04930510508
:1024000010F048E050E0BE016F5F7F4F0E943C2C0F
:1024100083E090E00E94C22A882369F00E94480568
:1024200060937D0270937E0280937F02909380027E
:102430001092E60481E02896E2E00C94782BEF926B
:10244000FF921F93CF93DF9300D000D00F92CDB7B0
:10245000DEB77B0190E080E00E94C22A182F88231B
:1024600009F487C04091070150E04115510511F072
:1024700041E050E0609108017091090164597D4F7D
:10248000CE0105960E943C2C409164025091650259
:1024900060916602709167022FB7F8948091AC0644
:1024A0009091AD06A091AE06B091AF062FBF841BF0
:1024B000950BA60BB70B84369105A105B10540F429
:1024C0008DE692E00E9498039D81891709F451C01E
:1024D00081E090E00E94C22A81111AC010E0809130
:1024E000600290916102A0916202B0916302F701D3
:1024F00080839183A283B383812F0F900F900F90DD
:102500000F900F90DF91CF911F91FF90EF90089562
:1025100040910F0150E04530510510F044E050E08B
:10252000609110017091110164597D4FCE010196A7
:102530000E943C2C8DE692E00E9498039D818913B5
:10254000CDCF0E944805609364027093650280932A
:1025500066029093670289819A81AB81BC818093E6
:10256000600290936102A0936202B093630211E053
:10257000B6CF80916D0290916E02A0916F02B091E2
:10258000700289839A83AB83BC831111E4CFA7CFF8
:1025900068EE7EEF90E080E00E94772C60E082E0C1
:1025A00090E00E94592C60E083E090E00E94592C5A
:1025B000109254021092530260E084E090E00E9476
:1025C000592C64E082E290E00E94592C60E085E0A2
:1025D00090E00E94592C60E086E090E00E94592C27
:1025E0006FEF87E090E00E94592C40E050E0BA0184
:1025F00088E090E00E946B2C60E08DE090E00E940B
:10260000592C40E050E0BA0188E190E00E946B2C28
:1026100060E087E190E00E94592C40E050E0BA0170
:102620008CE190E00E946B2C70E060E080E290E032
:102630000E94772C40E050E0BA0188E190E00E94CF
:102640006B2C40E050E0BA018FE090E00E946B2CD0
:1026500040E050E0BA0183E190E00E946B2C0895C5
:102660001F920F920FB60F9211242F933F934F9307
:102670005F936F937F938F939F93AF93BF93EF93EA
:10268000FF938091E10082FF09C08091E20082FF08
:1026900005C08091E1008B7F8093E1008091DA009A
:1026A00080FF24C08091D80080FF20C08091DA0094
:1026B0008E7F8093DA008091D90080FF9DC080E1F9
:1026C00089BD82E189BD09B400FEFDCF81E0809320
:1026D000DA068091B506811109C00E94AF030E94FD
:1026E0007A048091E20084608093E2008091E100AE
:1026F00080FF17C08091E20080FF13C08091E2004C
:102700008E7F8093E2008091E20080618093E200FE
:102710008091D80080628093D80019BC85E08093B6
:10272000DA068091E10084FF2BC08091E20084FFF3
:1027300027C080E189BD82E189BD89B5982F91705C
:1027400080FFFBCF8091D8008F7D8093D80080914F
:10275000E1008F7E8093E1008091E2008F7E809384
:10276000E2008091E20081608093E2008091DB06CC
:10277000882309F447C084E08093DA068091DA0662
:102780008091E10083FF27C08091E20083FF23C096
:102790008091E100877F8093E10082E08093DA06F8
:1027A0001092DB068091E1008E7F8093E1008091A2
:1027B000E2008E7F8093E2008091E200806180934E
:1027C000E20042E060E080E00E9448048091F00076
:1027D00088608093F000FF91EF91BF91AF919F913E
:1027E0008F917F916F915F914F913F912F910F90BA
:1027F0000FBE0F901F90189519BC1092DA06109218
:10280000B50674CF8091E30087FD93E09093DA06DC
:10281000B5CF78941F921FB61F9211248F939F9368
:10282000AF93BF938091AC069091AD06A091AE0698
:10283000B091AF060196A11DB11D8093AC06909397
:10284000AD06A093AE06B093AF06BF91AF919F9136
:102850008F911F901FBE1F9018959C014FB7F89441
:102860008091AC069091AD06A091AE06B091AF06F6
:102870004FBF821B930B08952FB7F8948091AC063D
:102880009091AD06A091AE06B091AF062FBF08950E
:102890000E943C149C019091DA048091DB04982BF7
:1028A00021F03093D7042093D6049091DC048091DA
:1028B000DD04982B21F03093D5042093D404E091CB
:1028C000A706F091A806309749F082E08093D804DB
:1028D0000480F581E02D88ED94E00995089590E05D
:1028E00080E00E94C90590E080E00E94B30510924C
:1028F00050020E94F41086E0E8EDF4E0DF011D9242
:102900008A95E9F71092D2041092D1041092D30460
:102910000E944814089590939102809390020E941F
:102920006F14089521E030E002C0220F331F8A9512
:10293000E2F7209530958091900290919102822348
:1029400093230E948B14089590912F0280958923E0
:1029500080932F02282F277091F4282F082E000C27
:10296000330B9217130659F09091B10692FF07C0EE
:102970008595859585950E94921410922F02089551
:10298000CF93C091B106C2FB992790F9981791F0A7
:1029900080FBC2F9C093B1066091B00684E090E07C
:1029A0000E94592C6C2F82E290E00E94592C82E008
:1029B0000E94A414CF91089521E030E002C0220FBC
:1029C000331F8A95E2F78091900290919102822BB9
:1029D000932B0E948B14089590935402809353027A
:1029E0000E946F1408951092510280914B01E0EC07
:1029F000F1E0882361F08091B00687FF08C08EE186
:102A0000DF011D928A95E9F70E946F14089586E010
:102A1000F7CFAAE2B0E0EFE0F5E10C945B2B8CED90
:102A200096E02091F100FC012193CF01F6E0843E75
:102A30009F07B9F78091DD06833009F470C0B8F4C0
:102A4000813009F447C0823009F4B1C08091E800B8
:102A500083FF7EC28091DC069091DD069A3008F0FB
:102A600077C2E92FF0E0EE50F34D0C94B12B8A3091
:102A700009F48CC08B3009F46FC0893039F780912C
:102A8000DC06813219F78091E0069091E106029709
:102A9000E8F68091E800877F8093E8008091E80065
:102AA00082FF38C09091F3008091F200029731F4D8
:102AB0008091F100813011F0863021F48091F10095
:102AC0008093B7068091E8008B778093E8000E949E
:102AD0002904BCCF8091DC06813A09F0B7CF809100
:102AE000E800877F8093E8008091E0069091E106FE
:102AF000892B61F460E288EB96E070E00E94D504D7
:102B00008091E8008B778093E800A0CF60E090E0B0
:102B100080E0F3CF8091DA068111C0CF97CF80910A
:102B2000DC06813A09F092CF8091E0069091E106AF
:102B3000892B09F08BCF8091E800877F8093E80094
:102B40008091E80080FFFCCF80914B018093F100E1
:102B50008091E8008E77B9CF8091DC06813209F050
:102B600075CF8091E0069091E106892B09F06ECF38
:102B70008091E800877F8093E8000E94290480917B
:102B8000DE0680934B010E94F31460CF8091DC0637
:102B9000813209F05BCF8091E800877F8093E80065
:102BA0000E9429048091DF068093B6064FCF809162
:102BB000DC06813A09F04ACF8091E800877F809354
:102BC000E8008091E80080FFFCCF8091B606BECF80
:102BD000803899F0823809F0BBC18091E0068F708F
:102BE000873008F0B5C18093E9008091EB0085FB48
:102BF000882780F91092E90006C08091D80690914C
:102C0000D906911182609091E800977F9093E80037
:102C10008093F1001092F1008091E8008E7794C1CA
:102C2000882309F482C1823009F092C18091DE06C6
:102C3000811185C18091E0068F702FEF280F26301B
:102C400008F086C18093E9002091EB0020FF77C156
:102C5000933031F48091EB0080628093EB006FC180
:102C60009091EB0090619093EB0021E030E001C087
:102C7000220F8A95EAF72093EA001092EA008091E9
:102C8000EB008860EACF811163C11091DE061F77E7
:102C90008091E3008078812B8093E3008091E800AD
:102CA000877F8093E8000E9429048091E80080FFDC
:102CB000FCCF8091E30080688093E30082E01111F3
:102CC00083E08093DA0644C18058823008F040C126
:102CD0008091DE069091DF068C3D23E09207A1F5FE
:102CE00083E08A838AE289834FB7F894DE011396E2
:102CF00020E03EE051E2E32FF0E050935700E491F2
:102D000020FF03C0E295EF703F5FEF708E2F90E0E1
:102D1000EA30C0F0C7968D939D932F5F243159F709
:102D20004FBF8091E800877F8093E8006AE270E0FF
:102D3000CE0101960E94D5048091E8008B778093A4
:102D4000E80006C1C096E7CF4091E0065091E10649
:102D5000292F33272330310509F444C078F5213079
:102D6000310509F46FC08BE390E0E0E8F6E0223033
:102D7000310509F0EDC02091E800277F2093E8009D
:102D80002091E2063091E3068217930708F49C0134
:102D900040E02115310509F064C0411162C0809105
:102DA000E80082FDC9CF8091DA06882329F28530B8
:102DB00019F28091E80083FFF2CFBECF21323105B6
:102DC000A9F12232310509F0C3C04115510509F4BA
:102DD00043C04130510509F0BBC086EB90E0EAE802
:102DE000F5E0C9CF992781309105C1F0009759F0DE
:102DF000029709F0ADC0EDECF6E0E4918E2F90E083
:102E0000EDECF6E007C0EDEEF6E0E4918E2F90E0F9
:102E1000EDEEF6E0009709F49BC0ADCFEBEDF6E0E8
:102E2000E4918E2F90E0EBEDF6E0F4CF41155105E3
:102E300071F04130510509F08BC089E090E0EBEA78
:102E4000F6E099CF82E190E0EBEBF6E094CF89E0F9
:102E500090E0E2E9F6E08FCF80E490E0E0E4F6E095
:102E60008ACF8091DA06882309F466CF853009F489
:102E700063CF8091E80083FD5FCF8091E80082FD01
:102E80008ECF8091E80080FF84CF9091F3008091F5
:102E9000F2002115310519F08830910550F041E01C
:102EA000089709F040E08091E8008E778093E80071
:102EB00070CF44914093F100319621503109019631
:102EC000E8CF803809F044C08091E800877F809384
:102ED000E8008091DB068093F1009ECE811138C01E
:102EE0001091DE061230A0F58091E800877F809374
:102EF000E8001093DB060E942904112311F084E0FE
:102F000005C08091E30087FDFACF81E08093DA0667
:102F100042E061EC81E00E94480442E261EC82E020
:102F20000E9448048091DA0613C08091DE06813049
:102F300079F481E0933009F080E08093D906109213
:102F4000E9008091E800877F8093E8000E942904CF
:102F50008091E80083FF0AC08091E800877F80931A
:102F6000E8008091EB0080628093EB00AA96E3E09A
:102F70000C94772B1F920F920FB60F9211242F9360
:102F80003F934F935F936F937F938F939F93AF93F1
:102F9000BF93CF93DF93EF93FF93D091E900DF705E
:102FA0008091EC00C82FC17080FDC0E81092E9004C
:102FB0008091F000877F8093F00078940E9409153B
:102FC0001092E9008091F00088608093F000CD2B92
:102FD000CF70C093E900FF91EF91DF91CF91BF9146
:102FE000AF919F918F917F916F915F914F913F91A1
:102FF0002F910F900FBE0F901F9018950E94F31401
:103000002FEF84E39CE0215080409040E1F700C026
:10301000000088E19AE00FB6F894A89580936000CC
:103020000FBE90936000FFCF882391F19CEF980F23
:10303000913A40F4682F8EEB91E00E9454050E9473
:10304000F410089590E2980F983050F4877091E052
:1030500001C0990F8A95EAF7892F0E94BB09EFCF2B
:103060009BE5980F933028F490E080E00E94C9051A
:10307000089598E5980F973128F490E080E00E9439
:10308000B30508958D3E20F00E949C060E944814CE
:103090000895CF93C82F8823D9F18CEF8C0F813AF4
:1030A000C8F580914B01882311F18091B00687FF0C
:1030B0001EC0EC2FE695E695E695F0E0E254FE4F53
:1030C000828190E04C2F477021E030E002C0220F57
:1030D000331F4A95E2F782239323892B91F06C2FBB
:1030E0008EEB91E00E9454050E94F4100AC0E0ECBF
:1030F000F1E086EC91E02191C21789F38E179F07CA
:10310000D1F76C2F8EEB91E00E947E050E94F410A7
:10311000CF91089580E28C0F883068F4C77021E069
:1031200030E001C0220FCA95EAF780915102822B4C
:1031300080935102EBCFEBE5EC0FE33040F4F0E08D
:10314000E45BFE4F808190E00E94C905E1CFE8E595
:10315000EC0FE73150F4F0E0EE0FFF1FE15BFE4FA4
:10316000808191810E94B305D3CFCD3E88F28C2F10
:103170000E9457070E944814CBCF0F931F93CF9301
:10318000DF93C62FD42F022FFC0182818823A9F060
:103190006093E6060E943C149093E5068093E40653
:1031A000C77081E001C0880FCA95EAF70E945011EC
:1031B000DF91CF911F910F9108958091E6066813DA
:1031C00035C08091E4069091E5060E942D14883C5C
:1031D000910560F510E21D0FCD17B9F080E28C0F5C
:1031E000883040F4C77081E001C0880FCA95EAF7C3
:1031F0000E944911183048F481E09D2F977001C05A
:10320000880F9A95EAF70E945011802F0E94491862
:10321000802F0E941418183058F6D77081E001C032
:10322000880FDA95EAF70E944911C2CFC77081E092
:1032300001C0880FCA95EAF7F6CF0E944E0E882388
:1032400019F00E943C1408950E94820ECB0108954B
:1032500060919A06669570E04BE050E088E391E05B
:103260000E94222C892B19F481E08093E5040E94AE
:103270001D199093DF048093DE048091E60484603E
:103280008093E604089590919A0690FF31C0917062
:1032900081112FC0926090939A068091E60481601C
:1032A0008093E604662351F060919A0670919B0624
:1032B00080919C0690919D060E94D20F60919A0683
:1032C000669570E04BE050E088E391E00E94222C8C
:1032D000892BB1F00E94E60581E08093E10420E0B3
:1032E00040919D0660919C0680919B060E94E50F8F
:1032F00008958B3210F09465CECF880F982BCBCFEA
:103300000E942819E9CF80919A068695815009F488
:103310008AE261E00E944319089580919A06869599
:103320008F5F8B3208F081E061E00E9443190895BD
:1033300090919A0690FF08C09695981728F09617D6
:1033400018F40E948D19089561E00E9443190895B0
:10335000A5E0B0E0EEEAF9E10C94522B7C01FC010F
:1033600083819481892B31F08081918189238F3FE2
:1033700009F0AFC42596ECE00C946E2B0E94CC09AA
:10338000182F682F89819A810E94400A69817A8169
:10339000812F0E940D088C01843FFCE59F0709F4F2
:1033A00083C018F5893D9C4509F47AC00A3D8CE537
:1033B000180709F489C0083D9CE5190709F526E2BC
:1033C00041EE61EEC7010E94BD1880912F02877007
:1033D00089F2F7018281882369F28091B10682FF28
:1033E000C9CF82E00E94A414C5CF863FECE59E07BA
:1033F00009F462C008F45CC0873F9C4509F460C0D2
:10340000F7018281882309F475C41092E60604301E
:10341000FDE51F0708F05BC00B3F2CE5120730F4F9
:10342000C80182509C45449708F05CC00E945A1124
:103430009093B1068093B0060231ECE51E0709F4C3
:103440005CC108F0A8C009302CE5120709F433C1AB
:1034500008F072C005308CE5180709F41CC108F0AB
:103460005EC00330ECE51E0709F40DC108F00FC182
:103470008091B006816002302CE5120709F488C003
:103480006091B0061091B10684E090E00E94592C42
:10349000612F82E290E00E94592C0E94F31495CF94
:1034A00027E245EE65EE8ECF26E241EE60EE8ACF52
:1034B00027E245EE64EE86CF26E241EE62EE82CF51
:1034C00027E245EE66EE7ECF28E241E0EBCF063AFA
:1034D0003DE5130709F4AACFE0F402369DE519078C
:1034E00009F4A4CF06318CE5180709F0B4C4809123
:1034F00051028A7A91E009F490E09093DE0169E24A
:10350000811165E38EEB91E00E947E050E94F4102C
:103510005CCFC8018E5A9D45039720F787CF8091D5
:10352000B006806207303CE5130791F108F4BFC094
:103530008091B00680642CC00D309CE5190709F419
:10354000C4C090F48091B0068E7F0B30FCE51F075D
:10355000F9F08091B0068C600C302CE51207C0F0B9
:103560008091B0068D7F14C00F303CE5130709F43D
:10357000BCC008F4AEC000319CE5190709F4B9C01D
:103580008091B0068F7B0131ECE51E0709F078CF02
:103590008093B00675CF0115FDE51F0709F4B7C08C
:1035A000A8F50B3F3CE5130709F479C0C0F40431DA
:1035B0009CE5190709F4B9C008F4A5C00531FCE57C
:1035C0001F0709F05DCF8091B00682FB992790F923
:1035D00021E0922790FB82F990FB83F9D9CF0D3F30
:1035E0002CE5120709F479C008F45DC00E3F8CE5A4
:1035F000180709F476C08091B10683600F3F9CE5FF
:10360000190709F03DCF8093B1063ACF0236EDE5B8
:103610001E0709F495C090F402302DE5120709F455
:103620008DC008F478C060E003308DE5180709F01C
:1036300027CF8EE090E00E94592C22CF0E3A9DE5D4
:103640001907E9F060F49091B006892F8E7F90FF02
:103650008160063AFDE51F0709F49ACF11CF0F3AB2
:103660002DE5120771F1003B3DE5130709F008CF86
:103670009091B106892F877F93FF8860C4CF809196
:10368000B1068860C0CF8091B006826081CF809102
:10369000B00684607DCF8091B006886079CF80913C
:1036A000B1068160B0CF8091B1068260ACCF8091CD
:1036B000B00680616DCF0E94F3148091B0068068DF
:1036C00067CF8091B106877F9ECF8091B0068B7FB8
:1036D0005FCF8091B006877F5BCF8091B1068E7FF0
:1036E00092CF8091B1068D7F8ECF8091B0068F7E74
:1036F0004FCF8091B0068F7D4BCF0E94F314809105
:10370000B0068F7745CF8091B006837F41CF8091FF
:10371000B1068C7F78CF8091B106982F90959170EB
:103720008E7F892B90FB81F96ECF0E94F3149091CC
:10373000B006892F97FB87F980582ACF61E079CFAF
:103740009091B006892F8F7E94FF806121CF809168
:10375000DE0169E2811165E38EEB91E00E94540580
:10376000D5CE816080939A0661E086950E944319C8
:103770002CCE43E859E16DE879E10E94DF0525CEC2
:103780004DE859E163E879E1F8CF4DEA50E163EAA9
:1037900070E1F3CF49E850E166E970E1EECF4FE622
:1037A00050E16CE770E1E9CF4CE750E16FE670E182
:1037B000E4CF49EC50E167EB70E1DFCF61E081E0FD
:1037C000D5CF65E082E00E949819FFCD68E086E0E1
:1037D000FACF64E18FE0F7CF67E185E1F4CF62E2F1
:1037E00089E1F1CF61E083E2C1CF0E94F3142FEFB2
:1037F00034E38CE0215030408040E1F700C000000D
:103800000E9437058091B10682FB882780F991E0FC
:1038100089270E94C014F7018281008111818823C9
:1038200009F445C0C8010E94CC09D82E682FC801F0
:103830000E94400AB8018D2D0E940D080E942808A0
:103840008C01882EF701D280B580B2943FE0B3227C
:1038500080912F028770C1F0AD2CDD20B1F0812F57
:10386000807F803421F080E2800F883068F0809182
:10387000B10682FF09C082E00E94A41480912F0249
:103880008770AA24A3948111A12C912E92942FE0E9
:103890009222FBE0F91508F476C0E92DF0E0E4503F
:1038A000F34D0C94B12B81E0B4CF80E0B2CFC801CE
:1038B0000E940D0AD82EBECF212F2F70C22E107F4E
:1038C00019F0C29490EFC922DD20B9F0CC2069F044
:1038D00080E2800F883010F0811009C08091510281
:1038E000C82AC09251020E94F410802F4AC08091D1
:1038F0005002C82AC0925002F6CF802F0E9414189E
:10390000CC2009F440C0005E083010F0811004C0E3
:103910008C2D0E94BB0906C0C09480915002C82221
:10392000C09250020E94F4102EC0312F3F70C32E5F
:10393000107F103219F0C29480EFC822882089F0DD
:1039400081E0881609F477C0DD2009F481C0BB202E
:1039500009F477C0F701858180FFC7CF8F70858319
:1039600070C02091B10622FD43C0DD20D9F1CC20EA
:1039700039F080915102C82AC09251020E94F4107D
:1039800080E00E944918E92DE850FF0B349710F4AD
:103990000E94710EAA20A9F080912F0280FD11C013
:1039A000F70112828595859585950E94DC14C701E3
:1039B0000E94A81980912F028595859585950E9472
:1039C000921485E0F701DE01119601900D928A951F
:1039D000E1F709811A81C8010E940D0AB8010E940D
:1039E0000D08C8CC80E00E941418CC2061F290CF62
:1039F000DD20A1F0909152028C2D892BB11003C0D3
:103A00000E945011C0CFE1E0BE12FACF22FFBBCF1F
:103A1000981709F4B8CF80935202B5CFB11006C001
:103A20000E94B5098C2D0E944911ADCFF1E0BF165F
:103A300009F4A9CFF5CFDD2031F025E02B1508F4EE
:103A4000A2CF8C2DDDCF34E03B1508F49CCFEACF1C
:103A5000BB2041F3F9E38F1235C12FEF37EE83E03E
:103A6000215030408040E1F700C000002BC1812F81
:103A700086958695837061F0813009F084CFC80106
:103A80009370D11002C090E080E00E94B3057BCF1C
:103A9000C8019370D11002C090E080E00E94C90577
:103AA00072CF802FDD2029F00E9457070E94481412
:103AB0006ACF0E949C06FACF812F837009F03FC025
:103AC000D11061CF402F429546954770440F440F67
:103AD000802F8F7090E0042E02C0880F991F0A94E7
:103AE000E2F730E020E004FF09C02FE030E002C040
:103AF000220F331F4A95E2F72095309516951695BB
:103B00001370123099F078F440915302509154029E
:103B1000113039F0822B932B842395230E94EC14CF
:103B200032CF842B952B822B932BF8CF822B932B88
:103B3000209153023091540282279327EFCF86952C
:103B4000DD2011F0812F8170882309F41CCF402FD4
:103B5000429546954770440F440F802F8F7090E038
:103B6000042E02C0880F991F0A94E2F730E020E08B
:103B700004FF09C02FE030E002C0220F331F4A9536
:103B8000E2F720953095169516951370123099F03E
:103B900078F44091900250919102113039F0822BCB
:103BA000932B842395230E948B14EDCE842B952B8D
:103BB000822B932BF8CF822B932B20919002309164
:103BC000910282279327EFCF1F70DD2029F0812FEC
:103BD0000E94DC14802F14CF802F0E944911812F66
:103BE0000E949214D0CE802F92EF891699F19815E9
:103BF00070F0E0EF8E16D1F0F1EF8F1691F0DD202E
:103C000009F45BC0B11071CE812F8F7127C023EFF3
:103C1000821639F134EF8312F2CF8091B10682FD22
:103C20002EC0812F8F71DD20D9F218C0DD2069F000
:103C300084E08B1508F4A7CE1F7181E090E002C0EC
:103C4000880F991F1A95E2F7B8CF95E09B1508F4F5
:103C50009ACEF2CF812F8F71D110C2CF0E94DC1487
:103C600092CE90E080E0DD2009F49DCF1F7181E0CD
:103C700090E002C0880F991F1A95E2F794CFDD20DB
:103C800089F01F71812F0E94DC148091B10682FFA0
:103C900007C0E8E01E9FC0011124836080932F02BB
:103CA000812FDCCF81E00E94A414F1E0FB1508F025
:103CB0006ACE82E00E94A41466CEBB2039F089331C
:103CC00009F4CBCE802F0E9414185DCE812F8F7106
:103CD00087CF85E0DE01119601900D928A95E1F77C
:103CE000F701228189819A81211148CB0E940D0A16
:103CF000182F4CCB0631FCE51F0709F428CD809125
:103D0000510282720D3C2CE5120709F452CD08F0E5
:103D100068C0073C9CE5190709F437CDF0F5043C71
:103D2000FCE51F0709F425CD48F5033C3CE51307E6
:103D300009F071CD80919A0680FF13CD8E7F80931C
:103D40009A0660919A0670919B0680919C069091CC
:103D50009D060E94D20F0E94E6058091E6048160D4
:103D60008093E6049FEFE0E7F2E09150E040F040FE
:103D7000E1F700C000000E94360B27CB053C9CE514
:103D8000190709F4FDCC43EA50E16DEA70E1063C05
:103D9000ECE51E0709F4F1CC3ECD0A3CFCE51F071B
:103DA00009F4FDCC78F4083C3CE5130709F4F2CCA7
:103DB00046E950E169E870E1093C9CE5190709F41E
:103DC000DCCC29CD0B3CECE51E0709F4EDCC47EB30
:103DD00050E169EC70E10C3CFCE51F0709F4CDCC27
:103DE0001ACD023D2CE5120709F4F3CCA0F40F3CE8
:103DF0008CE5180709F4E5CC08F4E0CC003DECE5CF
:103E00001E0709F4E3CC6EE089E0013DFCE51F07E5
:103E100009F4D9CC00CD053D2CE5120709F4DFCC1F
:103E200068F4033D8CE5180709F4D6CC61E088E11D
:103E3000043D9CE5190709F499CCEDCC063DECE571
:103E40001E0709F4CFCC6AE285E20E35FDE51F07B7
:103E500009F4B9CCE0CC0B352DE5120709F423CDDC
:103E600068F401158CE5180709F4BFCC0F3D1C451B
:103E700009F0D1CC0E94C8120E94FE170D35EDE565
:103E80001E0709F4BFCC08F410CD083A1D45A1F374
:103E9000C2CC1F93CF93DF938091FC01807F09F008
:103EA00049C08091F901882309F444C080912E0211
:103EB000D091FD016091F7017091F801A091FA0194
:103EC000B091FB01C62FC72316E0D81799F190E0F7
:103ED000109711F0CF3F19F401968770F6CF189F15
:103EE0009001199F300D1124F901E250FE4F4181DC
:103EF0004713F2CF40814613EFCF42814111ECCFFF
:103F0000438154814A1B5B0B483C510528F7809143
:103F1000FC018F7080618093FC01F901ED5FFD4F22
:103F200080818F708061808387EF91E00E94A81963
:103F30000E94C209DF91CF911F910895A1E1B0E0E5
:103F4000E4EAFFE10C94542B8C0185E0F801DE01DA
:103F50001D9601900D928A95E1F7F801E28087EFB6
:103F6000A82E81E0B82E6091FA017091FB016115D5
:103F7000710509F426C19091F7014091F801892F4C
:103F800084238F3F09F41DC120813181C380D480F7
:103F9000F090F901F601E61BF70BFF2009F4DCC0F5
:103FA0008091FC01582F507FE83CF10508F09FC03C
:103FB00051116BC0FE2C431314C0921312C0E110B8
:103FC00010C08F7080618093FC01C5010E94A81908
:103FD0008091FC01F80185838F2D6196EAE00C94B5
:103FE000702BC114D10429F0822F83238F3F09F055
:103FF00003C180E0F82FF170DF2E80FF3CC080917C
:104000002E024091FD0156E0841315C02D873E8796
:104010008D859E850E94000A292F22952F702230BF
:10402000F0F0243018F59F70F1F0F8019581907F41
:10403000D1F4D12C1EC090E0589FF001599FF00D93
:104040001124E250FE4F6181361306C060812613B1
:1040500003C06281E6120FC001968770D5CF9F70B2
:1040600011F0882331F3805E883018F3C8010E9474
:10407000A819FD2CB1CFEE2009F4AECF8091FC0140
:1040800081608093FC01F12CA7CF431306C09213EB
:1040900004C0F801EE2009F479C0C8010E94760A34
:1040A000882309F1EE20F9F08091FC01803270F054
:1040B0002091F7013091F80138872F831986DB862C
:1040C000CA868C87CE0107960E94A81986E0F8015F
:1040D000A7EFB1E001900D928A95E1F70E94491F88
:1040E000FF24F39479CFC8010E94A819F9CF511188
:1040F0000AC087EF91E00E94A81986E0F5011192AD
:104100008A95E9F7C0CF43130FC092130DC0E11099
:104110000BC0F8018583C8010E94A81986E0F5014B
:1041200011928A95E9F758CFC8010E94760A882330
:10413000D1F2EE20C1F28091FC01803238F2209160
:10414000F7013091F8013A8329831B82DD82CC820A
:104150008E83CE010196B8CFE83CF105F8F6FE2C2F
:10416000EE2009F243131FC092131DC08091FC0181
:1041700080FD10C0982F907F69F0F8018583903FF3
:1041800031F0982F907F905F8F70892B8583C801C5
:104190000E94A81986E0F801A7EFB1E001900D9206
:1041A0008A95E1F719CFC8010E94760A81118ECF56
:1041B0008091FC0181608093FC01C8010E94A819D4
:1041C0000BCFEE2009F48FCFC8010E94760AF82E9B
:1041D000882309F488CF86E0F801A7EFB1E00190C9
:1041E0000D928A95E1F78091F7019091F8010E9474
:1041F000000A0E94491FF0CE81E08E25FBCEA7E188
:10420000B0E0E5E0F1E20C945B2B4B8B5C8B6D8BAB
:104210007E8B8F8B6111109250021A8A198A85E069
:10422000FE017396DE011D9601900D928A95E1F7CD
:1042300086E0FE013D96DE01179601900D928A956B
:10424000E1F7CE0107960E949E1F882359F016E0E1
:1042500080912E029091FD01891343C06796E3E09F
:104260000C94772B86E0FE013796DE0111960190C3
:104270000D928A95E1F78A859B85892B41F38F8181
:10428000988589238F3F19F32091FD0130E0C90102
:1042900001968770992740912E024817190671F4EC
:1042A0000E94F3141092FD0110922E0286E0E7EFB7
:1042B000F1E0DF011D928A95E9F7C9CF96E0929F60
:1042C000D001939FB00D1124A250BE4FFE01319634
:1042D00001900D929A95E1F78093FD010E94C20929
:1042E000B6CF819FC001112482509E4F0E949E1F15
:1042F000882309F4B3CF80912E0290E00196877055
:10430000992780932E02A4CFACE0B0E0EAE8F1E276
:104310000C94512B8E010F5F1F4F88E0D8011D9226
:104320008A95E9F78FE7C82E81E0D82EF12CE12C91
:10433000AA24A394B12C29E8822E21E0922EF60122
:1043400081916F018F3F09F442C0F894E82FE29504
:10435000EF70F0E021A18F70A50102C0440F551F3E
:104360008A95E2F7CA01922F982B91A392A180958A
:10437000892382A3789400C0E3E8F1E0712C31E056
:1043800021912F3F09F46BC0A22FA295AF70B0E02E
:1043900090968C9190E02F7002C0959587952A9504
:1043A000E2F780FD5CC0832F782A330F8E169F06BC
:1043B00039F7F601319780818F3F11F00E94B307E2
:1043C00050EA5A95F1F7F801EE0DFF1D70828FEF5C
:1043D000E81AF80A94E0E916F10409F0B0CF48E0D1
:1043E00050E0B80186E892E00E942F2C009741F03F
:1043F00028E0F801A6E8B2E001900D922A95E1F7D5
:1044000000918F02892B69F181E0809357020E940D
:104410003C149093560280935502809155029091DE
:1044200056020E942D14059700F110E00B561D4F07
:1044300044E050E066E872E0C8010E942F2CF12CA5
:10444000892B51F084E0E6E8F2E0D80101900D926A
:104450008A95E1F7FF24F3941092570207C080E099
:10446000A3CF809157028111D8CFF12C0E944E0E1C
:10447000E82EE0918F02882309F47DC019861A8600
:104480001B861C860E2F10E00B561D4F809181025B
:104490008A30D8F54FE152E1BE01675F7F4FC80116
:1044A0000E941B0E882309F455C048E651E1BE0165
:1044B000675F7F4FC8010E941B0E882309F44AC022
:1044C0004EEB51E1BE01675F7F4FC8010E941B0E9A
:1044D000882309F43FC01092810280918E0290E0FF
:1044E00044E050E0BE01675F7F4F8B569D4F0E94B6
:1044F0002F2C21E020935E02892BF1F4E12C8E2DEC
:104500008F292C96EDE00C946D2B809158029091A0
:1045100059020E942D14843F914008F0BBCF809136
:104520005E02882359F3FE01399684E0DF011D9273
:104530008A95E9F710925E02E0918E02F0E0EB5668
:10454000FD4F89859A85AB85BC8580839183A28345
:10455000B383D5CF809181028F3F31F08F5F8093FD
:1045600081028A3008F4B9CF0E943C14909359021A
:1045700080935802D4CFF0E0EB56FD4F84E0ADE6D7
:10458000B2E001900D928A95E1F78DE692E00E94EB
:10459000980380936C028090710290907202A090B8
:1045A0007302B090740280915A0290915B02A091C4
:1045B0005C02B0915D0288169906AA06BB06D1F08E
:1045C00080925A0290925B02A0925C02B0925D02CD
:1045D0000E944E0E81110EC00E944805861A970A4D
:1045E000A80AB90A8092820290928302A092840261
:1045F000B092850280917C02882309F480CF80FFED
:104600000DC08091750290919A0680FF28C091603C
:1046100090939A0660E086950E94431980917C02EF
:1046200081FF09C020E0409178026091770280917B
:1046300076020E94E50F80917C0282FF06C0809185
:104640007B02882311F10E94281980917C0283FF4C
:1046500003C081E08093E10410927C0250CF9E7FE2
:1046600090939A060E94E6058091E604816080930B
:10467000E604BFEFE0E7F2E0B150E040F040E1F7E0
:1046800000C000000E94360BC9CF0E94E605DDCFB6
:104690001F921FB61F9211248F939F93AF93BF93C6
:1046A0008091AB06811113C08091AC069091AD064C
:1046B000A091AE06B091AF064196A11DB11D8093A9
:1046C000AC069093AD06A093AE06B093AF06BF9133
:1046D000AF919F918F911F901FBE1F901895CDB7DE
:1046E000DEB762970FB6F894DEBF0FBECDBF85B7B9
:1046F000806885BF85B7806885BF84B7877F84BFA2
:104700000FB6F894A895809160008861809360004E
:10471000109260000FBE80E890E00FB6F89480938E
:104720006100909361000FBE81EB97E09093BD0113
:104730008093BC010E94AF030E947A048091E20042
:1047400084608093E20078948091DA068823A1F057
:104750001091E9001F709091EC00892F817090FDFD
:1047600080E8182B1092E9008091E80083FD0E94F8
:1047700009151F701093E90082E084BD93E095BD98
:104780009AEF97BD80936E0010928202109283027E
:1047900010928402109285020E944E0E8093240192
:1047A00080912401882309F473C0109246018BE1A3
:1047B000809347010E944E0E81110E94D62980915C
:1047C00024018091240194E0811190E090938F0264
:1047D00084E0891B80938E0284E90E94B30786E6F9
:1047E0000E94B30787E90E94B30786EC0E94B307D3
:1047F00003E811E059E8E52E51E0F52ED8018D913E
:104800008D018F3F11F00E94B307E016F106B1F75A
:1048100088E0E5E9F2E0DF01282F1D922A95E9F70B
:10482000E6E8F2E0DF011D928A95E9F790E080E08A
:104830000E94532C883E9E4F11F00E94C81282E0C5
:1048400090E00E94452C80939D020E945A11909303
:10485000B1068093B0060E948421EFE3FCE9319712
:10486000F1F700C000000E9484210E944E0EE4E097
:104870008111E0E0F0E0EB56FD4F808181FF0CC03C
:104880006FEF7FEF90E080E00E94772C0E94370569
:104890008BE1809346018CCF83E090E00E94452C11
:1048A00090E00E94EC141092CA0480E88093A90260
:1048B0000E9490286DE070E08FE593E00E949C0ECE
:1048C000892BC9F58091CA0463E070E081FDD4C0F2
:1048D0008CE593E00E949C0E892B69F56DE070E0F9
:1048E0008CE493E00E949C0E892B29F50E944805D8
:1048F000605A75418F4F9F4F60939F067093A0063B
:104900008093A1069093A206EAECF2E080E092E0A8
:10491000DF019C011D9221503040E1F78FEF9FEFA6
:104920009093CD048093CC0481E08093A40680937F
:10493000A3061092CB048091920281113BC090E0BB
:1049400080E00E94532C883E9E4F21F00E94C812A6
:104950000E94DB1088E090E00E944D2C60939A0644
:1049600070939B0680939C0690939D068091E6042D
:1049700083608093E6046E7F71F40E94DB1088E010
:1049800090E00E944D2C60939A0670939B06809352
:104990009C0690939D060E94ED050E94E60580917D
:1049A0009A0680FF04C060E086950E94431981E06A
:1049B000809392020E944E0E811102C00E94D9295A
:1049C00085E291E09093A8068093A7068091DA068D
:1049D00000E112E1853009F48CC00E9484213EE997
:1049E000E32E32E0F32E45E9C42E42E0D42ED60168
:1049F000F70191918D9126EA32E02E173F0709F4D5
:104A000082C09817B1F30E944E0E882E10E0D60196
:104A10000D916D01F70191907F01901629F190267B
:104A2000B12CAA24A394892D8A21B1F08820A1F069
:104A3000BC861D8791E0802F8A2109F490E09E8733
:104A40000E943C148160782F988B8F874C855D8500
:104A50006E8588890E94FF20B394AA0CF6E0BF12ED
:104A6000E2CFF701319700831F5F183081F60E9473
:104A70004805DD24D39468C089E593E02BCF80916D
:104A8000DA06843031F10E94C60E1092AB0688E13E
:104A900090E0A0E40FB6F894A895809360000FBE54
:104AA000A093600083B7817F846083BF83B78160F8
:104AB00083BF7894889583B78E7F83BF0FB6F894B1
:104AC000A8958091600088618093600010926000DA
:104AD0000FBE8091D906882361F00E948421E5E908
:104AE000F2E081918111FCC22DE932E02E173F07DF
:104AF000C1F78091DA06853009F4C1CF0E94F31422
:104B00000E94710E6ACF98137ECF0E943C148C01D4
:104B1000809193029091940208171907A1F08FEFEA
:104B20008F83888719860E943C148160782F9B8729
:104B30008A874F81588569858B850E94FF20109355
:104B4000940200939302D12C0E944E0E8091E504B2
:104B5000882309F464C08091E404E0919A06E69504
:104B6000E81BE093E004823009F072C1F0E0E35802
:104B7000FC4FE4910E2F10E027E0E22E2EE0F22E03
:104B80008091E104882361F01092E1040E941D19D4
:104B90009093DF048093DE041092E3041092E20409
:104BA0000E941D19E091DE04F091DF049C012E1B90
:104BB0003F0B2F3F3F4798F52091A8022223B1F0E9
:104BC0001092A8022091A6023091A702821B930B9B
:104BD0008F3F9F4758F4205D3A483093A7022093B7
:104BE000A6028091E60488608093E604A090E20427
:104BF000B090E304E00FF11FF093DF04E093DE04D4
:104C00008EED94E0F70109958091E2049091E30420
:104C1000892B29F4AB2819F081E08093A8028091B8
:104C2000A4068823A9F18091CE049091CF040E941C
:104C30002D14C29730F00E943C149093CF048093BF
:104C4000CE042091CC043091CD042115310539F0EA
:104C50008091CB0461E070E0882309F466C1809103
:104C6000A3068823A9F00E94480500919F06109191
:104C7000A0062091A1063091A206601B710B820B49
:104C8000930B6F3F7F4F8F4F9F4710F40E94C60ECC
:104C9000D1100E94E10E86E0E8EDF4E0DE0111960D
:104CA00001900D928A95E1F71092DA041092DB04DC
:104CB0001092DC041092DD048B819C81892B09F415
:104CC0004AC08091D6049091D7040E942D149C0173
:104CD0009091D204992309F41EC225313105D8F1EF
:104CE0009F3F19F09F5F9093D2041B81112359F0CD
:104CF0000E9437079FEF11160CF491E0899F802DD9
:104D000011248093DA041C81112359F00E94370783
:104D10009FEF11160CF491E0899F802D1124809350
:104D2000DB043091DA043323B1F02091DB04222339
:104D300091F045EB3403C0011124992309F4C0C15B
:104D40009093DA0445EB240390011124332309F4F2
:104D5000BBC13093DB048D819E81892B09F44AC04D
:104D60008091D4049091D5040E942D149C019091BF
:104D7000D104992309F4CAC121353105D8F19F3FE7
:104D800019F09F5F9093D1041D81112359F00E9467
:104D900015079FEF11160CF491E0899F802D1124C7
:104DA0008093DC041E81112359F00E9415079FEFA8
:104DB00011160CF491E0899F802D11248093DD045D
:104DC0003091DC043323B1F02091DD04222391F0F3
:104DD00045EB3403C0011124992309F479C1909360
:104DE000DC0445EB240390011124332309F474C13E
:104DF0003093DD0446E050E0BE016F5F7F4F88EDE9
:104E000094E00E942F2C892B61F48091DA04909118
:104E1000DB04892B9091DC04892B9091DD04892B94
:104E200011F00E94481486E0FE013196A8EDB4E02E
:104E300001900D928A95E1F70E94710E9091D00435
:104E4000891709F4C3CD8093D0040E944805BECDD4
:104E5000863059F4F0E0E658FC4FE4910E2F10E054
:104E600097EFE92E9DE0F92E8BCE893061F4E6951F
:104E7000F0E0E958FC4FE4910E2F10E080E5E82EB9
:104E80008DE0F82E7DCE8F3061F4E695F0E0EC58A1
:104E9000FC4FE4910E2F10E0B5ECEB2EBCE0FB2EA6
:104EA0006FCE853159F4F0E0EF58FC4FE4910E2FAE
:104EB00010E0A0E4EA2EACE0FA2E62CE08E210E0A8
:104EC0007EEBE72E7BE0F72E883109F459CE833252
:104ED00049F4EFE6F3E005911491F6EAEF2EFDE0D8
:104EE000FF2E4ECE04EF11E061E8E62E6BE0F62EC9
:104EF000843209F445CE00ED17E055EEE52E55E07D
:104F0000F52E853209F03CCE8E2F63E00E94832B74
:104F1000E92FF0E0E459FC4FE4910E2F10E0E9E0B6
:104F2000EE2EEFE0FE2E2CCE8F5F082F10E07B01DF
:104F3000082E02C0EE0CFF1C0A94E2F7A9014E21D4
:104F40005F21452B89F39091CA0490FD43C082955F
:104F5000880F807680933301980136952795369592
:104F6000279520933601815E80933401109237019A
:104F700024E630E047E050E061E371E088E70E941A
:104F80003029892B09F06BCEA80125E0440F551F6D
:104F90002A95E1F78091CA0480FD2AC046535D4FEF
:104FA00004E610E020E230E060E488E70E94512946
:104FB000892B09F054CE0E94E10EE094F094809188
:104FC000CC049091CD04E822F922F092CD04E09235
:104FD000CC0445CE880F880F880F80933301109240
:104FE0003601895F8093340183E080933701C0CF1D
:104FF000EAEAF2E080E2DF011D928A95E9F7EDE846
:10500000F1E0FA8BE98B09E811E081E9282E81E0D3
:10501000382E97E0992E88248394A989BA892D91F6
:10502000BA8BA98BF80141908F01440E552E511C6B
:10503000C20186539D4F2C01E22FF0E0E655FD4F53
:1050400030E020E0692C621AC82C022E01C0CC0C82
:105050000A94EAF7520190E0D5018D915D018C210F
:10506000662D691B6770762E062E000C770BB82F05
:1050700001C0BB0F7A94EAF77B2E71956195710997
:105080006770772701C086956A95EAF7782A80814C
:10509000782A70829F5F9830F9F62F5F3F4F3196E4
:1050A0002830310579F6E989FA892E163F0609F08C
:1050B000B4CF04E610E020E230E04AEA52E074CFD8
:1050C00081E08093DA043ECE81E08093DB0443CE1E
:1050D00081E08093DC0485CE81E08093DD048ACE7C
:1050E00009BD19BD09B400FEFDCF8091D8008F7DA8
:1050F0008093D8008091E00082608093E0008091EE
:10510000E00081FDFCCF0E94F314F3CC2B3031057D
:1051100008F037CE6FCE2B30310508F0E3CD1BCE33
:105120001092B9008CE08093B8000895B0E0A0E040
:10513000ECE9F8E20C94532BB82EEB010E943C14DE
:105140006C01EE24E394F12CC431D10560F025E02C
:10515000E22EF12CCF3FDC0731F0CE0164E170E0AC
:105160000E94382B7B0184EAA82E94E8992E109295
:10517000BC00A092BC000E943C148C018091BC0039
:1051800087FF0DC08091B900887F8830F9F0809149
:10519000B900887F8031D1F00FEF1FEF08C0C80140
:1051A0000E942D14E816F90648F70EEF1FEFCF3FC7
:1051B000DC07E9F2C6010E942D14C817D907B8F61A
:1051C000C801CDB7DEB7EBE00C946F2BB092BB00FB
:1051D0009092BC000E943C148C018091BC0087FF1F
:1051E0000AC08091B900887F883111F08034A1F61F
:1051F00010E000E0E5CFC8010E942D14E816F90682
:1052000060F7D3CF0F931F93CF93DF93EB0180937E
:10521000BB0084E88093BC000E943C148C01809108
:10522000BC0087FF11C02091B900287F81E090E089
:10523000283211F490E080E0919581959109DF91F9
:10524000CF911F910F910895CF3FDC0741F3C80123
:105250000E942D14C817D90710F78EEF9FEFEFCFDC
:10526000B0E0A0E0E6E3F9E20C94562B6B018A0172
:105270007901B9010E949628E6010C0D1D1DC01789
:10528000D10711F097FF08C024E92093BC00CDB7E7
:10529000DEB7E8E00C94722BB70189910E940229D5
:1052A000EECFB0E0A0E0E7E5F9E20C94562BC62F74
:1052B0006A017901B8010E94962897FD0CC0B801D7
:1052C0008C2F0E940229E601EC0CFD1CCE15DF0597
:1052D00011F097FF08C024E92093BC00CDB7DEB7DA
:1052E000E8E00C94722BB80189910E940229EECF5C
:1052F00084E98093BC0008958EE14A9B02C08150EE
:10530000E1F74A9BFECF08955A9880E28A95F1F71B
:105310005A9A0895FC013BE03A95F1F798E020E0B5
:1053200080E031E040E14A95F1F7880F4A9B02C0E6
:105330008160232742E04A95F1F7000040E14A9559
:10534000F1F7915079F790E19A95F1F799B132E040
:105350003A95F1F7000040E14A95F1F792FB992761
:1053600090F992272081920F90830895A1E0B0E0F8
:10537000ECEBF9E20C94582B19828C017C01E60EBF
:10538000F11C0E151F0541F481E09981911180E017
:105390002196E6E00C94742B0E947C29CE010196A4
:1053A0000E948A29F80181938F01EBCF529A5A9A71
:1053B000089552985A9AEA9AE9E6F0E080818F7C43
:1053C000808308956150770B91E001C0990F6A9531
:1053D000EAF720E031E0911108C0222391F05A9AB7
:1053E00080E28A95F1F75A980895492F482339F0B9
:1053F0005A9A232740E24A95F1F79695ECCF5A98AE
:10540000F9CF5A98EDCFFF920F931F93CF93DF936D
:10541000EC018C01060F111DC017D10729F4CDB77F
:10542000DEB7E5E00C94752BF9900E94842968E0C2
:105430008F2D0E94E229F0CF1F920F920FB60F928C
:1054400011240F931F932F933F934F935F936F9369
:105450007F938F939F93AF93BF93EF93FF93CF93DC
:10546000DF930F92CDB7DEB719820E947C29CE015F
:1054700001960E948A29082F069506950695282FE1
:1054800022952570902F9570290F922F9370269555
:105490002695920F982797708981982B09F05CC008
:1054A000053008F059C080E18A95F1F75A9A529A6E
:1054B00082E08A95F1F700C05A9888E0089F800141
:1054C0001124D801AC5FBE4F1696ED91FC91179751
:1054D0003097A9F060917D0170917E0114962D9115
:1054E0003C911597260F371F11968D919C9112971D
:1054F000680F791F13964C9113978C910995F801B9
:10550000EC5FFE4F6381662351F020917D01309165
:105510007E0184819581820F931F0E94032A0E943D
:10552000842980E18A95F1F75A9852985A9A80E135
:105530008A95F1F7F801EC5FFE4F6081662351F028
:1055400020917D0130917E0181819281820F931F94
:105550000E94B6290E947C290F90DF91CF91FF9184
:10556000EF91BF91AF919F918F917F916F915F91DB
:105570004F913F912F911F910F910F900FBE0F9060
:105580001F9018950F931F93CF93DF93EC0105970E
:105590000CF04CC0F894529A5A9885E08A95F1F72D
:1055A00000009C2F969595708C2F8570980F892FF1
:1055B00083709695969523E0CC0FDD1F2A95E1F731
:1055C000980F8E01092B0E94842900C068E0802F6B
:1055D0000E94E22980E18A95F1F752985A9A4A9BF3
:1055E0001EC087E090E04A991CC0FE01EC5FFE4FB0
:1055F00063816623F9F020917D0130917E018481E1
:105600009581820F931F0E94B629811113C0529A6F
:105610005A9A7894DF91CF911F910F91089500C00D
:10562000DECF019729F4529A5A9A789480E0F2CF0B
:1056300000C0D9CF0E947C2980E28A95F1F75A9860
:10564000529A80E18A95F1F7CC5FDE4F688166233C
:1056500051F020917D0130917E0189819A81820FE4
:10566000931F0E94032A0E948429789481E0D2CF5C
:10567000AA1BBB1B51E107C0AA1FBB1FA617B70778
:1056800010F0A61BB70B881F991F5A95A9F7809594
:105690009095BC01CD0108952F923F924F925F9259
:1056A0006F927F928F929F92AF92BF92CF92DF9232
:1056B000EF92FF920F931F93CF93DF93CDB7DEB797
:1056C000CA1BDB0B0FB6F894DEBF0FBECDBF09942B
:1056D0002A88398848885F846E847D848C849B8482
:1056E000AA84B984C884DF80EE80FD800C811B8190
:1056F000AA81B981CE0FD11D0FB6F894DEBF0FBEBF
:10570000CDBFED010895991B79E004C0991F96174C
:1057100008F0961B881F7A95C9F78095089587FB36
:10572000082E062687FD819567FD61950E94832BD3
:105730000EF4919507FC8195089597FB072E16F4BA
:10574000009407D077FD09D00E94382B07FC05D0C4
:105750003EF4909581959F4F0895709561957F4F88
:105760000895EE0FFF1F0590F491E02D09940E941B
:10577000E12C332312F48A1B9B0B0C94C12B0E9447
:10578000E12CB7FF0895821B930B08958F929F928F
:10579000AF92BF92CF92DF92EF92FF92CF93DF93BF
:1057A000EC01688179818A819B8161157105810590
:1057B000910521F464E279ED8BE597E02DE133EF7B
:1057C00041E050E00E948D2C49015A019B01AC013F
:1057D000A7EAB1E40E94AC2C6B017C01ACEEB4EF03
:1057E000A50194010E94BA2CDC01CB018C0D9D1DFA
:1057F000AE1DBF1DB7FF03C00197A109B048888344
:105800009983AA83BB839F77DF91CF91FF90EF901D
:10581000DF90CF90BF90AF909F908F9008950E949F
:10582000C62B089580E091E00E94C62B0895B0E059
:10583000A0E08093000190930101A0930201B09336
:1058400003010895FC014150504030F001900616CC
:10585000D1F73197CF010895882799270895FB0143
:10586000DC0104C08D910190801921F44150504019
:10587000C8F7881B990B0895FB01DC0102C0019059
:105880000D9241505040D8F70895F999FECF92BD3E
:1058900081BDF89A992780B50895A6E1B0E044E06B
:1058A00050E00C947F2CA8E1B0E042E050E00C9472
:1058B0007F2C262FF999FECF92BD81BDF89A0197D2
:1058C00000B4021639F01FBA20BD0FB6F894FA9A48
:1058D000F99A0FBE08950396272F0E945A2C0E9412
:1058E000592C252F0E945A2C242F0C945A2C0196A7
:1058F000272F0E945A2C0C94592CDC01CB01FC015F
:10590000F999FECF06C0F2BDE1BDF89A319600B418
:105910000D9241505040B8F70895052E97FB1EF4A4
:1059200000940E94A42C57FD07D00E94BF2C07FCB6
:1059300003D04EF40C94A42C5095409530952195AD
:105940003F4F4F4F5F4F08959095809570956195AB
:105950007F4F8F4F9F4F08950E94E12CA59F900D80
:10596000B49F900DA49F800D911D11240895B7FF41
:105970000C94AC2C0E94AC2C821B930B0895A1E2DA
:105980001A2EAA1BBB1BFD010DC0AA1FBB1FEE1FB9
:10599000FF1FA217B307E407F50720F0A21BB30B04
:1059A000E40BF50B661F771F881F991F1A9469F780
:1059B00060957095809590959B01AC01BD01CF01DC
:1059C0000895A29FB001B39FC001A39F700D811DD8
:1059D0001124911DB29F700D811D1124911D0895F8
:1059E000F894FFCFE8151016A8171016A81743163D
:1059F0006416A81761176E175C1C5C1C951C951C1F
:105A0000371D511DC31CC31C5C1DE41DF31DF31D7C
:105A10000100000000000001000000000000000480
:105A2000010000000405000000000000080900005B
:105A300000000000013405F60AD50AD00ACB0A336B
:105A4000050021007F22000301191A1B1C1D1E1FC7
:105A5000202122010201003600363601818283E2D4
:105A600000E900EA00B500B600B700CD008301CC24
:105A7000008A0192019401210223022402250226B8
:105A80000227022A02B300B4006F0070006C029477
:105A90006697C6F4F5F6F7313300081018181008A9
:105AA00000000102020202060606090909090909A5
:105AB0000F0F0F0F0F0F151515181919191919199F
:0C5AC00019191919232425252525252551
:00000001FF
